{
  "_format": "hh-sol-artifact-1",
  "contractName": "WavePortal",
  "sourceName": "contracts/WavePortal.sol",
  "abi": [
    {
      "inputs": [],
      "stateMutability": "nonpayable",
      "type": "constructor"
    },
    {
      "inputs": [],
      "name": "getTotalUsers",
      "outputs": [
        {
          "internalType": "address[]",
          "name": "",
          "type": "address[]"
        }
      ],
      "stateMutability": "view",
      "type": "function"
    },
    {
      "inputs": [],
      "name": "getTotalWaves",
      "outputs": [
        {
          "internalType": "uint256",
          "name": "",
          "type": "uint256"
        }
      ],
      "stateMutability": "view",
      "type": "function"
    },
    {
      "inputs": [
        {
          "internalType": "uint256",
          "name": "",
          "type": "uint256"
        }
      ],
      "name": "senders",
      "outputs": [
        {
          "internalType": "address",
          "name": "",
          "type": "address"
        }
      ],
      "stateMutability": "view",
      "type": "function"
    },
    {
      "inputs": [
        {
          "internalType": "address",
          "name": "sender",
          "type": "address"
        }
      ],
      "name": "wave",
      "outputs": [],
      "stateMutability": "nonpayable",
      "type": "function"
    }
  ],
  "bytecode": "0x608060405234801561001057600080fd5b5061003c604051806060016040528060258152602001610a456025913961004160201b6102af1760201c565b6101bb565b6100dd816040516024016100559190610199565b6040516020818303038152906040527f41304fac000000000000000000000000000000000000000000000000000000007bffffffffffffffffffffffffffffffffffffffffffffffffffffffff19166020820180517bffffffffffffffffffffffffffffffffffffffffffffffffffffffff83818316178352505050506100e060201b60201c565b50565b60008151905060006a636f6e736f6c652e6c6f679050602083016000808483855afa5050505050565b600081519050919050565b600082825260208201905092915050565b60005b83811015610143578082015181840152602081019050610128565b60008484015250505050565b6000601f19601f8301169050919050565b600061016b82610109565b6101758185610114565b9350610185818560208601610125565b61018e8161014f565b840191505092915050565b600060208201905081810360008301526101b38184610160565b905092915050565b61087b806101ca6000396000f3fe608060405234801561001057600080fd5b506004361061004c5760003560e01c806328b9d006146100515780639977c78a1461006d5780639a2cdc081461009d5780639be572f6146100bb575b600080fd5b61006b6004803603810190610066919061050c565b6100d9565b005b6100876004803603810190610082919061056f565b610197565b60405161009491906105ab565b60405180910390f35b6100a56101d6565b6040516100b291906105d5565b60405180910390f35b6100c3610221565b6040516100d091906106ae565b60405180910390f35b60016000808282546100eb91906106ff565b925050819055506001819080600181540180825580915050600190039060005260206000200160009091909190916101000a81548173ffffffffffffffffffffffffffffffffffffffff021916908373ffffffffffffffffffffffffffffffffffffffff1602179055506101946040518060400160405280600d81526020017f257320686173207761766564210000000000000000000000000000000000000081525033610348565b50565b600181815481106101a757600080fd5b906000526020600020016000915054906101000a900473ffffffffffffffffffffffffffffffffffffffff1681565b60006102196040518060400160405280601781526020017f5765206861766520256420746f74616c207761766573210000000000000000008152506000546103e4565b600054905090565b606060018054806020026020016040519081016040528092919081815260200182805480156102a557602002820191906000526020600020905b8160009054906101000a900473ffffffffffffffffffffffffffffffffffffffff1673ffffffffffffffffffffffffffffffffffffffff168152602001906001019080831161025b575b5050505050905090565b610345816040516024016102c391906107c3565b6040516020818303038152906040527f41304fac000000000000000000000000000000000000000000000000000000007bffffffffffffffffffffffffffffffffffffffffffffffffffffffff19166020820180517bffffffffffffffffffffffffffffffffffffffffffffffffffffffff8381831617835250505050610480565b50565b6103e0828260405160240161035e9291906107e5565b6040516020818303038152906040527f319af333000000000000000000000000000000000000000000000000000000007bffffffffffffffffffffffffffffffffffffffffffffffffffffffff19166020820180517bffffffffffffffffffffffffffffffffffffffffffffffffffffffff8381831617835250505050610480565b5050565b61047c82826040516024016103fa929190610815565b6040516020818303038152906040527fb60e72cc000000000000000000000000000000000000000000000000000000007bffffffffffffffffffffffffffffffffffffffffffffffffffffffff19166020820180517bffffffffffffffffffffffffffffffffffffffffffffffffffffffff8381831617835250505050610480565b5050565b60008151905060006a636f6e736f6c652e6c6f679050602083016000808483855afa5050505050565b600080fd5b600073ffffffffffffffffffffffffffffffffffffffff82169050919050565b60006104d9826104ae565b9050919050565b6104e9816104ce565b81146104f457600080fd5b50565b600081359050610506816104e0565b92915050565b600060208284031215610522576105216104a9565b5b6000610530848285016104f7565b91505092915050565b6000819050919050565b61054c81610539565b811461055757600080fd5b50565b60008135905061056981610543565b92915050565b600060208284031215610585576105846104a9565b5b60006105938482850161055a565b91505092915050565b6105a5816104ce565b82525050565b60006020820190506105c0600083018461059c565b92915050565b6105cf81610539565b82525050565b60006020820190506105ea60008301846105c6565b92915050565b600081519050919050565b600082825260208201905092915050565b6000819050602082019050919050565b610625816104ce565b82525050565b6000610637838361061c565b60208301905092915050565b6000602082019050919050565b600061065b826105f0565b61066581856105fb565b93506106708361060c565b8060005b838110156106a1578151610688888261062b565b975061069383610643565b925050600181019050610674565b5085935050505092915050565b600060208201905081810360008301526106c88184610650565b905092915050565b7f4e487b7100000000000000000000000000000000000000000000000000000000600052601160045260246000fd5b600061070a82610539565b915061071583610539565b925082820190508082111561072d5761072c6106d0565b5b92915050565b600081519050919050565b600082825260208201905092915050565b60005b8381101561076d578082015181840152602081019050610752565b60008484015250505050565b6000601f19601f8301169050919050565b600061079582610733565b61079f818561073e565b93506107af81856020860161074f565b6107b881610779565b840191505092915050565b600060208201905081810360008301526107dd818461078a565b905092915050565b600060408201905081810360008301526107ff818561078a565b905061080e602083018461059c565b9392505050565b6000604082019050818103600083015261082f818561078a565b905061083e60208301846105c6565b939250505056fea26469706673582212208cbeec35295da6def08ff5eb22da5de0a4eae016adc489bcb430cd32eb17c86664736f6c63430008110033596f20796f2c204920616d206120636f6e747261637420616e64204920616d20736d617274",
  "linkReferences": {},
  "deployedLinkReferences": {}
}